{
  "contractName": "SimpleStorage",
  "abi": [
    {
      "constant": false,
      "inputs": [
        {
          "name": "s",
          "type": "string"
        },
        {
          "name": "t",
          "type": "string"
        }
      ],
      "name": "setWord",
      "outputs": [],
      "payable": false,
      "stateMutability": "nonpayable",
      "type": "function"
    },
    {
      "constant": true,
      "inputs": [
        {
          "name": "random",
          "type": "uint256"
        }
      ],
      "name": "getRandomWord",
      "outputs": [
        {
          "name": "",
          "type": "uint256"
        },
        {
          "name": "",
          "type": "string"
        },
        {
          "name": "",
          "type": "address"
        },
        {
          "name": "",
          "type": "string"
        }
      ],
      "payable": false,
      "stateMutability": "view",
      "type": "function"
    },
    {
      "constant": true,
      "inputs": [],
      "name": "getMessageCount",
      "outputs": [
        {
          "name": "",
          "type": "uint256"
        }
      ],
      "payable": false,
      "stateMutability": "view",
      "type": "function"
    }
  ],
  "bytecode": "0x608060405234801561001057600080fd5b506106ac806100206000396000f3fe608060405234801561001057600080fd5b50600436106100415760003560e01c806331933916146100465780638c595a9514610064578063cc76b911146101b6575b600080fd5b61004e610303565b6040518082815260200191505060405180910390f35b6101b46004803603604081101561007a57600080fd5b810190808035906020019064010000000081111561009757600080fd5b8201836020820111156100a957600080fd5b803590602001918460018302840111640100000000831117156100cb57600080fd5b91908080601f016020809104026020016040519081016040528093929190818152602001838380828437600081840152601f19601f8201169050808301925050505050505091929192908035906020019064010000000081111561012e57600080fd5b82018360208201111561014057600080fd5b8035906020019184600183028401116401000000008311171561016257600080fd5b91908080601f016020809104026020016040519081016040528093929190818152602001838380828437600081840152601f19601f82011690508083019250505050505050919291929050505061030f565b005b6101e2600480360360208110156101cc57600080fd5b81019080803590602001909291905050506103f5565b60405180858152602001806020018473ffffffffffffffffffffffffffffffffffffffff1673ffffffffffffffffffffffffffffffffffffffff16815260200180602001838103835286818151815260200191508051906020019080838360005b8381101561025e578082015181840152602081019050610243565b50505050905090810190601f16801561028b5780820380516001836020036101000a031916815260200191505b50838103825284818151815260200191508051906020019080838360005b838110156102c45780820151818401526020810190506102a9565b50505050905090810190601f1680156102f15780820380516001836020036101000a031916815260200191505b50965050505050505060405180910390f35b60008080549050905090565b600060405180606001604052808481526020013373ffffffffffffffffffffffffffffffffffffffff168152602001838152509080600181540180825580915050906001820390600052602060002090600302016000909192909190915060008201518160000190805190602001906103899291906105db565b5060208201518160010160006101000a81548173ffffffffffffffffffffffffffffffffffffffff021916908373ffffffffffffffffffffffffffffffffffffffff16021790555060408201518160020190805190602001906103ed9291906105db565b505050505050565b60006060600060606000808054905014156104415760003381915060405180602001604052806000815250908090506040518060200160405280600081525093509350935093506105d4565b600080868154811061044f57fe5b90600052602060002090600302019050600080549050816000018260010160009054906101000a900473ffffffffffffffffffffffffffffffffffffffff1683600201828054600181600116156101000203166002900480601f0160208091040260200160405190810160405280929190818152602001828054600181600116156101000203166002900480156105275780601f106104fc57610100808354040283529160200191610527565b820191906000526020600020905b81548152906001019060200180831161050a57829003601f168201915b50505050509250808054600181600116156101000203166002900480601f0160208091040260200160405190810160405280929190818152602001828054600181600116156101000203166002900480156105c35780601f10610598576101008083540402835291602001916105c3565b820191906000526020600020905b8154815290600101906020018083116105a657829003601f168201915b505050505090509450945094509450505b9193509193565b828054600181600116156101000203166002900490600052602060002090601f016020900481019282601f1061061c57805160ff191683800117855561064a565b8280016001018555821561064a579182015b8281111561064957825182559160200191906001019061062e565b5b509050610657919061065b565b5090565b61067d91905b80821115610679576000816000905550600101610661565b5090565b9056fea165627a7a723058203f63ae4afea190037b1921d5a31d7e06bebe9f875c1a8fd4733f7628465acf200029",
  "source": "pragma solidity ^0.5.0;\n\n\ncontract SimpleStorage {\n\n    struct Message {\n        string word; // 留言\n        address from; // 留言者地址\n        string timestamp; // 留言unix时间戳\n    }\n\n    Message[] private wordArr;\n\n    function setWord(string memory s, string memory t) public {\n        wordArr.push(Message({\n            word : s,\n            from : msg.sender,\n            timestamp : t\n            }));\n    }\n\n    function getRandomWord(uint random) public view returns (uint, string memory , address, string memory) {\n        if (wordArr.length == 0) {\n            return (0, \"\", msg.sender, \"\");\n        } else {\n            Message storage result = wordArr[random];\n            return (wordArr.length, result.word, result.from, result.timestamp);\n        }\n\n    }\n\n    function getMessageCount() public view returns(uint) {\n        return wordArr.length;\n    }\n\n}\n",
  "sourcePath": "/Users/TangoTian/WebstormProjects/blockchain/blockChainMessage/contracts/SimpleStorage.sol",
  "compiler": {
    "name": "solc",
    "version": "0.5.8+commit.23d335f2.Emscripten.clang"
  },
  "schemaVersion": "3.0.10",
  "updatedAt": "2019-06-07T15:29:17.034Z",
  "devdoc": {
    "methods": {}
  },
  "userdoc": {
    "methods": {}
  }
}